{
  "contracts/WeightedRaffle.sol": {
    "WeightedRaffle": {
      "abi": [
        {
          "inputs": [],
          "stateMutability": "nonpayable",
          "type": "constructor"
        },
        {
          "inputs": [],
          "name": "InvalidInitialization",
          "type": "error"
        },
        {
          "inputs": [],
          "name": "InvalidInputs",
          "type": "error"
        },
        {
          "inputs": [],
          "name": "NotInitializing",
          "type": "error"
        },
        {
          "inputs": [
            {
              "internalType": "address",
              "name": "owner",
              "type": "address"
            }
          ],
          "name": "OwnableInvalidOwner",
          "type": "error"
        },
        {
          "inputs": [
            {
              "internalType": "address",
              "name": "account",
              "type": "address"
            }
          ],
          "name": "OwnableUnauthorizedAccount",
          "type": "error"
        },
        {
          "anonymous": false,
          "inputs": [
            {
              "indexed": false,
              "internalType": "uint64",
              "name": "version",
              "type": "uint64"
            }
          ],
          "name": "Initialized",
          "type": "event"
        },
        {
          "anonymous": false,
          "inputs": [
            {
              "indexed": true,
              "internalType": "address",
              "name": "previousOwner",
              "type": "address"
            },
            {
              "indexed": true,
              "internalType": "address",
              "name": "newOwner",
              "type": "address"
            }
          ],
          "name": "OwnershipTransferred",
          "type": "event"
        },
        {
          "inputs": [
            {
              "internalType": "address[]",
              "name": "beneficiaries",
              "type": "address[]"
            },
            {
              "internalType": "uint256[]",
              "name": "weights",
              "type": "uint256[]"
            }
          ],
          "name": "addEntries",
          "outputs": [],
          "stateMutability": "nonpayable",
          "type": "function"
        },
        {
          "inputs": [
            {
              "internalType": "address",
              "name": "beneficiary",
              "type": "address"
            },
            {
              "internalType": "uint256",
              "name": "weight",
              "type": "uint256"
            }
          ],
          "name": "addEntry",
          "outputs": [],
          "stateMutability": "nonpayable",
          "type": "function"
        },
        {
          "inputs": [
            {
              "internalType": "uint256",
              "name": "randomSeed_",
              "type": "uint256"
            },
            {
              "internalType": "uint256",
              "name": "numWinners",
              "type": "uint256"
            }
          ],
          "name": "draw",
          "outputs": [],
          "stateMutability": "nonpayable",
          "type": "function"
        },
        {
          "inputs": [
            {
              "internalType": "uint256",
              "name": "",
              "type": "uint256"
            }
          ],
          "name": "entries",
          "outputs": [
            {
              "internalType": "address",
              "name": "beneficiary",
              "type": "address"
            },
            {
              "internalType": "uint256",
              "name": "start",
              "type": "uint256"
            },
            {
              "internalType": "uint256",
              "name": "end",
              "type": "uint256"
            }
          ],
          "stateMutability": "view",
          "type": "function"
        },
        {
          "inputs": [
            {
              "internalType": "uint256",
              "name": "n",
              "type": "uint256"
            }
          ],
          "name": "getWinner",
          "outputs": [
            {
              "internalType": "address",
              "name": "",
              "type": "address"
            }
          ],
          "stateMutability": "view",
          "type": "function"
        },
        {
          "inputs": [
            {
              "internalType": "address",
              "name": "owner_",
              "type": "address"
            }
          ],
          "name": "init",
          "outputs": [],
          "stateMutability": "nonpayable",
          "type": "function"
        },
        {
          "inputs": [],
          "name": "owner",
          "outputs": [
            {
              "internalType": "address",
              "name": "",
              "type": "address"
            }
          ],
          "stateMutability": "view",
          "type": "function"
        },
        {
          "inputs": [],
          "name": "randomSeed",
          "outputs": [
            {
              "internalType": "uint256",
              "name": "",
              "type": "uint256"
            }
          ],
          "stateMutability": "view",
          "type": "function"
        },
        {
          "inputs": [],
          "name": "renounceOwnership",
          "outputs": [],
          "stateMutability": "nonpayable",
          "type": "function"
        },
        {
          "inputs": [
            {
              "internalType": "address",
              "name": "newOwner",
              "type": "address"
            }
          ],
          "name": "transferOwnership",
          "outputs": [],
          "stateMutability": "nonpayable",
          "type": "function"
        }
      ],
      "evm": {
        "bytecode": {
          "linkReferences": {},
          "object": "6080604052348015600f57600080fd5b506016601a565b60ca565b7ff0c57e16840df040f15088dc2f81fe391c3923bec73e23a9662efc9c229c6a00805468010000000000000000900460ff161560695760405163f92ee8a960e01b815260040160405180910390fd5b80546001600160401b039081161460c75780546001600160401b0319166001600160401b0390811782556040519081527fc7f505b2f371ae2175ee4913f4499e1f2633a7b5936321eed1cdaeb6115181d29060200160405180910390a15b50565b610f7f806100d96000396000f3fe608060405234801561001057600080fd5b50600436106100be5760003560e01c8063715018a611610076578063b30906d41161005b578063b30906d41461017d578063d2b8035a146101b5578063f2fde38b146101c857600080fd5b8063715018a6146101455780638da5cb5b1461014d57600080fd5b806319ab453c116100a757806319ab453c146100f457806322ba5f7b146101075780634129b2c91461011a57600080fd5b80630b747d91146100c35780631086e0ac146100df575b600080fd5b6100cc60015481565b6040519081526020015b60405180910390f35b6100f26100ed366004610daf565b6101db565b005b6100f2610102366004610e3c565b610299565b6100f2610115366004610e57565b6103d6565b61012d610128366004610e81565b6103ec565b6040516001600160a01b0390911681526020016100d6565b6100f2610451565b7f9016d09d72d40fdae2fd8ceac6b6234c7706214fd39c1cd1e609a0528c199300546001600160a01b031661012d565b61019061018b366004610e81565b610465565b604080516001600160a01b0390941684526020840192909252908201526060016100d6565b6100f26101c3366004610e9a565b6104a2565b6100f26101d6366004610e3c565b61054e565b6101e36105a5565b8281146102375760405162461bcd60e51b815260206004820152601060248201527f4c656e67746873206d69736d617463680000000000000000000000000000000060448201526064015b60405180910390fd5b60005b838110156102925761028a85858381811061025757610257610ebc565b905060200201602081019061026c9190610e3c565b84848481811061027e5761027e610ebc565b90506020020135610619565b60010161023a565b5050505050565b7ff0c57e16840df040f15088dc2f81fe391c3923bec73e23a9662efc9c229c6a00805468010000000000000000810460ff16159067ffffffffffffffff166000811580156102e45750825b905060008267ffffffffffffffff1660011480156103015750303b155b90508115801561030f575080155b15610346576040517ff92ee8a900000000000000000000000000000000000000000000000000000000815260040160405180910390fd5b845467ffffffffffffffff19166001178555831561037a57845468ff00000000000000001916680100000000000000001785555b6103838661085d565b83156103ce57845468ff000000000000000019168555604051600181527fc7f505b2f371ae2175ee4913f4499e1f2633a7b5936321eed1cdaeb6115181d29060200160405180910390a15b505050505050565b6103de6105a5565b6103e88282610619565b5050565b60006001546000036104405760405162461bcd60e51b815260206004820152601460248201527f526166666c65206e6f742066696e616c69736564000000000000000000000000604482015260640161022e565b61044b60028361086e565b92915050565b6104596105a5565b6104636000610881565b565b6000818154811061047557600080fd5b60009182526020909120600390910201805460018201546002909201546001600160a01b03909116925083565b6104aa6105a5565b600154156104fa5760405162461bcd60e51b815260206004820152601860248201527f526166666c6520616c72656164792066696e616c697365640000000000000000604482015260640161022e565b60018290556000805b828110156105485760005b6105228361051b81610ee8565b94506108ff565b905061052f600282610add565b61050e5761053e600282610aff565b5050600101610503565b50505050565b6105566105a5565b6001600160a01b038116610599576040517f1e4fbdf70000000000000000000000000000000000000000000000000000000081526000600482015260240161022e565b6105a281610881565b50565b336105d77f9016d09d72d40fdae2fd8ceac6b6234c7706214fd39c1cd1e609a0528c199300546001600160a01b031690565b6001600160a01b031614610463576040517f118cdaa700000000000000000000000000000000000000000000000000000000815233600482015260240161022e565b6001600160a01b03821661066f5760405162461bcd60e51b815260206004820152601660248201527f42656e6566696369617279206d75737420657869737400000000000000000000604482015260640161022e565b600081116106bf5760405162461bcd60e51b815260206004820152601660248201527f576569676874206d757374206265206e6f6e7a65726f00000000000000000000604482015260640161022e565b60008054900361079357604080516060810182526001600160a01b039384168152600060208201818152928201938452805460018101825590805290517f290decd9548b62a8d60345a988386fc84ba6bc95484008f6362f93160ef3e5636003909202918201805473ffffffffffffffffffffffffffffffffffffffff19169190951617909355517f290decd9548b62a8d60345a988386fc84ba6bc95484008f6362f93160ef3e564830155517f290decd9548b62a8d60345a988386fc84ba6bc95484008f6362f93160ef3e56590910155565b6000805481906107a590600190610f01565b815481106107b5576107b5610ebc565b9060005260206000209060030201905060006040518060600160405280856001600160a01b03168152602001836002015481526020018484600201546107fb9190610f14565b905281546001808201845560009384526020938490208351600390930201805473ffffffffffffffffffffffffffffffffffffffff19166001600160a01b03909316929092178255928201519281019290925560400151600290910155505050565b610865610b14565b6105a281610b7b565b600061087a8383610b83565b9392505050565b7f9016d09d72d40fdae2fd8ceac6b6234c7706214fd39c1cd1e609a0528c199300805473ffffffffffffffffffffffffffffffffffffffff1981166001600160a01b03848116918217845560405192169182907f8be0079c531659141344cd1fd0a4f28419497f9722a3daafe3b4186f6b6457e090600090a3505050565b600080548190819061091390600190610f01565b8154811061092357610923610ebc565b6000918252602080832060408051606081018252600390940290910180546001600160a01b031684526001808201549385019390935260020154908301819052905491935061097691869190600c610bad565b9050600080600160008054905061098d9190610f01565b90505b808211610a5857600060026109a58385610f14565b6109af9190610f27565b905060008082815481106109c5576109c5610ebc565b600091825260209182902060408051606081018252600390930290910180546001600160a01b031683526001810154938301849052600201549082015291508510801590610a165750806040015185105b15610a2557519550610a589050565b8481602001511115610a4357610a3c600183610f01565b9250610a51565b610a4e826001610f14565b93505b5050610990565b6001600160a01b038516610ad45760405162461bcd60e51b815260206004820152602760248201527f496e76617269616e742076696f6c6174696f6e3a20696e646578206f7574206f60448201527f662072616e676500000000000000000000000000000000000000000000000000606482015260840161022e565b50505050919050565b6001600160a01b0381166000908152600183016020526040812054151561087a565b600061087a836001600160a01b038416610d14565b7ff0c57e16840df040f15088dc2f81fe391c3923bec73e23a9662efc9c229c6a005468010000000000000000900460ff16610463576040517fd7e6bcf800000000000000000000000000000000000000000000000000000000815260040160405180910390fd5b610556610b14565b6000826000018281548110610b9a57610b9a610ebc565b9060005260206000200154905092915050565b6000831580610bbc5750838510155b80610bca5750816001166001145b15610c01576040517ff34cfab600000000000000000000000000000000000000000000000000000000815260040160405180910390fd5b610c53565b60006003821160018114610c295760018315191615610c2457600191505b610c4d565b829150600160028404015b82811015610c4b5791506002828404830104610c34565b505b50919050565b610c5c84610c06565b6000856002830a1460018114610c9857600183016fffffffffffffffffffffffffffffffff811115610c8d57600080fd5b6002900a9150610c9c565b8691505b50610ca681610c06565b915050604051608081016040528460408201528560608201525b81870682880460005b86811015610cfb5782845260001981880301602085015260808420859006918501919091038490069190600101610cc9565b50830201965085871015610cc057509495945050505050565b6000818152600183016020526040812054610d5b5750815460018181018455600084815260208082209093018490558454848252828601909352604090209190915561044b565b50600061044b565b60008083601f840112610d7557600080fd5b50813567ffffffffffffffff811115610d8d57600080fd5b6020830191508360208260051b8501011115610da857600080fd5b9250929050565b60008060008060408587031215610dc557600080fd5b843567ffffffffffffffff811115610ddc57600080fd5b610de887828801610d63565b909550935050602085013567ffffffffffffffff811115610e0857600080fd5b610e1487828801610d63565b95989497509550505050565b80356001600160a01b0381168114610e3757600080fd5b919050565b600060208284031215610e4e57600080fd5b61087a82610e20565b60008060408385031215610e6a57600080fd5b610e7383610e20565b946020939093013593505050565b600060208284031215610e9357600080fd5b5035919050565b60008060408385031215610ead57600080fd5b50508035926020909101359150565b634e487b7160e01b600052603260045260246000fd5b634e487b7160e01b600052601160045260246000fd5b600060018201610efa57610efa610ed2565b5060010190565b8181038181111561044b5761044b610ed2565b8082018082111561044b5761044b610ed2565b600082610f4457634e487b7160e01b600052601260045260246000fd5b50049056fea264697066735822122065ae4823abe727364ef20567196ebf8fd072919bf4f9867029575607fa6de16864736f6c634300081a0033",
          "opcodes": "PUSH1 0x80 PUSH1 0x40 MSTORE CALLVALUE DUP1 ISZERO PUSH1 0xF JUMPI PUSH1 0x0 DUP1 REVERT JUMPDEST POP PUSH1 0x16 PUSH1 0x1A JUMP JUMPDEST PUSH1 0xCA JUMP JUMPDEST PUSH32 0xF0C57E16840DF040F15088DC2F81FE391C3923BEC73E23A9662EFC9C229C6A00 DUP1 SLOAD PUSH9 0x10000000000000000 SWAP1 DIV PUSH1 0xFF AND ISZERO PUSH1 0x69 JUMPI PUSH1 0x40 MLOAD PUSH4 0xF92EE8A9 PUSH1 0xE0 SHL DUP2 MSTORE PUSH1 0x4 ADD PUSH1 0x40 MLOAD DUP1 SWAP2 SUB SWAP1 REVERT JUMPDEST DUP1 SLOAD PUSH1 0x1 PUSH1 0x1 PUSH1 0x40 SHL SUB SWAP1 DUP2 AND EQ PUSH1 0xC7 JUMPI DUP1 SLOAD PUSH1 0x1 PUSH1 0x1 PUSH1 0x40 SHL SUB NOT AND PUSH1 0x1 PUSH1 0x1 PUSH1 0x40 SHL SUB SWAP1 DUP2 OR DUP3 SSTORE PUSH1 0x40 MLOAD SWAP1 DUP2 MSTORE PUSH32 0xC7F505B2F371AE2175EE4913F4499E1F2633A7B5936321EED1CDAEB6115181D2 SWAP1 PUSH1 0x20 ADD PUSH1 0x40 MLOAD DUP1 SWAP2 SUB SWAP1 LOG1 JUMPDEST POP JUMP JUMPDEST PUSH2 0xF7F DUP1 PUSH2 0xD9 PUSH1 0x0 CODECOPY PUSH1 0x0 RETURN INVALID PUSH1 0x80 PUSH1 0x40 MSTORE CALLVALUE DUP1 ISZERO PUSH2 0x10 JUMPI PUSH1 0x0 DUP1 REVERT JUMPDEST POP PUSH1 0x4 CALLDATASIZE LT PUSH2 0xBE JUMPI PUSH1 0x0 CALLDATALOAD PUSH1 0xE0 SHR DUP1 PUSH4 0x715018A6 GT PUSH2 0x76 JUMPI DUP1 PUSH4 0xB30906D4 GT PUSH2 0x5B JUMPI DUP1 PUSH4 0xB30906D4 EQ PUSH2 0x17D JUMPI DUP1 PUSH4 0xD2B8035A EQ PUSH2 0x1B5 JUMPI DUP1 PUSH4 0xF2FDE38B EQ PUSH2 0x1C8 JUMPI PUSH1 0x0 DUP1 REVERT JUMPDEST DUP1 PUSH4 0x715018A6 EQ PUSH2 0x145 JUMPI DUP1 PUSH4 0x8DA5CB5B EQ PUSH2 0x14D JUMPI PUSH1 0x0 DUP1 REVERT JUMPDEST DUP1 PUSH4 0x19AB453C GT PUSH2 0xA7 JUMPI DUP1 PUSH4 0x19AB453C EQ PUSH2 0xF4 JUMPI DUP1 PUSH4 0x22BA5F7B EQ PUSH2 0x107 JUMPI DUP1 PUSH4 0x4129B2C9 EQ PUSH2 0x11A JUMPI PUSH1 0x0 DUP1 REVERT JUMPDEST DUP1 PUSH4 0xB747D91 EQ PUSH2 0xC3 JUMPI DUP1 PUSH4 0x1086E0AC EQ PUSH2 0xDF JUMPI JUMPDEST PUSH1 0x0 DUP1 REVERT JUMPDEST PUSH2 0xCC PUSH1 0x1 SLOAD DUP2 JUMP JUMPDEST PUSH1 0x40 MLOAD SWAP1 DUP2 MSTORE PUSH1 0x20 ADD JUMPDEST PUSH1 0x40 MLOAD DUP1 SWAP2 SUB SWAP1 RETURN JUMPDEST PUSH2 0xF2 PUSH2 0xED CALLDATASIZE PUSH1 0x4 PUSH2 0xDAF JUMP JUMPDEST PUSH2 0x1DB JUMP JUMPDEST STOP JUMPDEST PUSH2 0xF2 PUSH2 0x102 CALLDATASIZE PUSH1 0x4 PUSH2 0xE3C JUMP JUMPDEST PUSH2 0x299 JUMP JUMPDEST PUSH2 0xF2 PUSH2 0x115 CALLDATASIZE PUSH1 0x4 PUSH2 0xE57 JUMP JUMPDEST PUSH2 0x3D6 JUMP JUMPDEST PUSH2 0x12D PUSH2 0x128 CALLDATASIZE PUSH1 0x4 PUSH2 0xE81 JUMP JUMPDEST PUSH2 0x3EC JUMP JUMPDEST PUSH1 0x40 MLOAD PUSH1 0x1 PUSH1 0x1 PUSH1 0xA0 SHL SUB SWAP1 SWAP2 AND DUP2 MSTORE PUSH1 0x20 ADD PUSH2 0xD6 JUMP JUMPDEST PUSH2 0xF2 PUSH2 0x451 JUMP JUMPDEST PUSH32 0x9016D09D72D40FDAE2FD8CEAC6B6234C7706214FD39C1CD1E609A0528C199300 SLOAD PUSH1 0x1 PUSH1 0x1 PUSH1 0xA0 SHL SUB AND PUSH2 0x12D JUMP JUMPDEST PUSH2 0x190 PUSH2 0x18B CALLDATASIZE PUSH1 0x4 PUSH2 0xE81 JUMP JUMPDEST PUSH2 0x465 JUMP JUMPDEST PUSH1 0x40 DUP1 MLOAD PUSH1 0x1 PUSH1 0x1 PUSH1 0xA0 SHL SUB SWAP1 SWAP5 AND DUP5 MSTORE PUSH1 0x20 DUP5 ADD SWAP3 SWAP1 SWAP3 MSTORE SWAP1 DUP3 ADD MSTORE PUSH1 0x60 ADD PUSH2 0xD6 JUMP JUMPDEST PUSH2 0xF2 PUSH2 0x1C3 CALLDATASIZE PUSH1 0x4 PUSH2 0xE9A JUMP JUMPDEST PUSH2 0x4A2 JUMP JUMPDEST PUSH2 0xF2 PUSH2 0x1D6 CALLDATASIZE PUSH1 0x4 PUSH2 0xE3C JUMP JUMPDEST PUSH2 0x54E JUMP JUMPDEST PUSH2 0x1E3 PUSH2 0x5A5 JUMP JUMPDEST DUP3 DUP2 EQ PUSH2 0x237 JUMPI PUSH1 0x40 MLOAD PUSH3 0x461BCD PUSH1 0xE5 SHL DUP2 MSTORE PUSH1 0x20 PUSH1 0x4 DUP3 ADD MSTORE PUSH1 0x10 PUSH1 0x24 DUP3 ADD MSTORE PUSH32 0x4C656E67746873206D69736D6174636800000000000000000000000000000000 PUSH1 0x44 DUP3 ADD MSTORE PUSH1 0x64 ADD JUMPDEST PUSH1 0x40 MLOAD DUP1 SWAP2 SUB SWAP1 REVERT JUMPDEST PUSH1 0x0 JUMPDEST DUP4 DUP2 LT ISZERO PUSH2 0x292 JUMPI PUSH2 0x28A DUP6 DUP6 DUP4 DUP2 DUP2 LT PUSH2 0x257 JUMPI PUSH2 0x257 PUSH2 0xEBC JUMP JUMPDEST SWAP1 POP PUSH1 0x20 MUL ADD PUSH1 0x20 DUP2 ADD SWAP1 PUSH2 0x26C SWAP2 SWAP1 PUSH2 0xE3C JUMP JUMPDEST DUP5 DUP5 DUP5 DUP2 DUP2 LT PUSH2 0x27E JUMPI PUSH2 0x27E PUSH2 0xEBC JUMP JUMPDEST SWAP1 POP PUSH1 0x20 MUL ADD CALLDATALOAD PUSH2 0x619 JUMP JUMPDEST PUSH1 0x1 ADD PUSH2 0x23A JUMP JUMPDEST POP POP POP POP POP JUMP JUMPDEST PUSH32 0xF0C57E16840DF040F15088DC2F81FE391C3923BEC73E23A9662EFC9C229C6A00 DUP1 SLOAD PUSH9 0x10000000000000000 DUP2 DIV PUSH1 0xFF AND ISZERO SWAP1 PUSH8 0xFFFFFFFFFFFFFFFF AND PUSH1 0x0 DUP2 ISZERO DUP1 ISZERO PUSH2 0x2E4 JUMPI POP DUP3 JUMPDEST SWAP1 POP PUSH1 0x0 DUP3 PUSH8 0xFFFFFFFFFFFFFFFF AND PUSH1 0x1 EQ DUP1 ISZERO PUSH2 0x301 JUMPI POP ADDRESS EXTCODESIZE ISZERO JUMPDEST SWAP1 POP DUP2 ISZERO DUP1 ISZERO PUSH2 0x30F JUMPI POP DUP1 ISZERO JUMPDEST ISZERO PUSH2 0x346 JUMPI PUSH1 0x40 MLOAD PUSH32 0xF92EE8A900000000000000000000000000000000000000000000000000000000 DUP2 MSTORE PUSH1 0x4 ADD PUSH1 0x40 MLOAD DUP1 SWAP2 SUB SWAP1 REVERT JUMPDEST DUP5 SLOAD PUSH8 0xFFFFFFFFFFFFFFFF NOT AND PUSH1 0x1 OR DUP6 SSTORE DUP4 ISZERO PUSH2 0x37A JUMPI DUP5 SLOAD PUSH9 0xFF0000000000000000 NOT AND PUSH9 0x10000000000000000 OR DUP6 SSTORE JUMPDEST PUSH2 0x383 DUP7 PUSH2 0x85D JUMP JUMPDEST DUP4 ISZERO PUSH2 0x3CE JUMPI DUP5 SLOAD PUSH9 0xFF0000000000000000 NOT AND DUP6 SSTORE PUSH1 0x40 MLOAD PUSH1 0x1 DUP2 MSTORE PUSH32 0xC7F505B2F371AE2175EE4913F4499E1F2633A7B5936321EED1CDAEB6115181D2 SWAP1 PUSH1 0x20 ADD PUSH1 0x40 MLOAD DUP1 SWAP2 SUB SWAP1 LOG1 JUMPDEST POP POP POP POP POP POP JUMP JUMPDEST PUSH2 0x3DE PUSH2 0x5A5 JUMP JUMPDEST PUSH2 0x3E8 DUP3 DUP3 PUSH2 0x619 JUMP JUMPDEST POP POP JUMP JUMPDEST PUSH1 0x0 PUSH1 0x1 SLOAD PUSH1 0x0 SUB PUSH2 0x440 JUMPI PUSH1 0x40 MLOAD PUSH3 0x461BCD PUSH1 0xE5 SHL DUP2 MSTORE PUSH1 0x20 PUSH1 0x4 DUP3 ADD MSTORE PUSH1 0x14 PUSH1 0x24 DUP3 ADD MSTORE PUSH32 0x526166666C65206E6F742066696E616C69736564000000000000000000000000 PUSH1 0x44 DUP3 ADD MSTORE PUSH1 0x64 ADD PUSH2 0x22E JUMP JUMPDEST PUSH2 0x44B PUSH1 0x2 DUP4 PUSH2 0x86E JUMP JUMPDEST SWAP3 SWAP2 POP POP JUMP JUMPDEST PUSH2 0x459 PUSH2 0x5A5 JUMP JUMPDEST PUSH2 0x463 PUSH1 0x0 PUSH2 0x881 JUMP JUMPDEST JUMP JUMPDEST PUSH1 0x0 DUP2 DUP2 SLOAD DUP2 LT PUSH2 0x475 JUMPI PUSH1 0x0 DUP1 REVERT JUMPDEST PUSH1 0x0 SWAP2 DUP3 MSTORE PUSH1 0x20 SWAP1 SWAP2 KECCAK256 PUSH1 0x3 SWAP1 SWAP2 MUL ADD DUP1 SLOAD PUSH1 0x1 DUP3 ADD SLOAD PUSH1 0x2 SWAP1 SWAP3 ADD SLOAD PUSH1 0x1 PUSH1 0x1 PUSH1 0xA0 SHL SUB SWAP1 SWAP2 AND SWAP3 POP DUP4 JUMP JUMPDEST PUSH2 0x4AA PUSH2 0x5A5 JUMP JUMPDEST PUSH1 0x1 SLOAD ISZERO PUSH2 0x4FA JUMPI PUSH1 0x40 MLOAD PUSH3 0x461BCD PUSH1 0xE5 SHL DUP2 MSTORE PUSH1 0x20 PUSH1 0x4 DUP3 ADD MSTORE PUSH1 0x18 PUSH1 0x24 DUP3 ADD MSTORE PUSH32 0x526166666C6520616C72656164792066696E616C697365640000000000000000 PUSH1 0x44 DUP3 ADD MSTORE PUSH1 0x64 ADD PUSH2 0x22E JUMP JUMPDEST PUSH1 0x1 DUP3 SWAP1 SSTORE PUSH1 0x0 DUP1 JUMPDEST DUP3 DUP2 LT ISZERO PUSH2 0x548 JUMPI PUSH1 0x0 JUMPDEST PUSH2 0x522 DUP4 PUSH2 0x51B DUP2 PUSH2 0xEE8 JUMP JUMPDEST SWAP5 POP PUSH2 0x8FF JUMP JUMPDEST SWAP1 POP PUSH2 0x52F PUSH1 0x2 DUP3 PUSH2 0xADD JUMP JUMPDEST PUSH2 0x50E JUMPI PUSH2 0x53E PUSH1 0x2 DUP3 PUSH2 0xAFF JUMP JUMPDEST POP POP PUSH1 0x1 ADD PUSH2 0x503 JUMP JUMPDEST POP POP POP POP JUMP JUMPDEST PUSH2 0x556 PUSH2 0x5A5 JUMP JUMPDEST PUSH1 0x1 PUSH1 0x1 PUSH1 0xA0 SHL SUB DUP2 AND PUSH2 0x599 JUMPI PUSH1 0x40 MLOAD PUSH32 0x1E4FBDF700000000000000000000000000000000000000000000000000000000 DUP2 MSTORE PUSH1 0x0 PUSH1 0x4 DUP3 ADD MSTORE PUSH1 0x24 ADD PUSH2 0x22E JUMP JUMPDEST PUSH2 0x5A2 DUP2 PUSH2 0x881 JUMP JUMPDEST POP JUMP JUMPDEST CALLER PUSH2 0x5D7 PUSH32 0x9016D09D72D40FDAE2FD8CEAC6B6234C7706214FD39C1CD1E609A0528C199300 SLOAD PUSH1 0x1 PUSH1 0x1 PUSH1 0xA0 SHL SUB AND SWAP1 JUMP JUMPDEST PUSH1 0x1 PUSH1 0x1 PUSH1 0xA0 SHL SUB AND EQ PUSH2 0x463 JUMPI PUSH1 0x40 MLOAD PUSH32 0x118CDAA700000000000000000000000000000000000000000000000000000000 DUP2 MSTORE CALLER PUSH1 0x4 DUP3 ADD MSTORE PUSH1 0x24 ADD PUSH2 0x22E JUMP JUMPDEST PUSH1 0x1 PUSH1 0x1 PUSH1 0xA0 SHL SUB DUP3 AND PUSH2 0x66F JUMPI PUSH1 0x40 MLOAD PUSH3 0x461BCD PUSH1 0xE5 SHL DUP2 MSTORE PUSH1 0x20 PUSH1 0x4 DUP3 ADD MSTORE PUSH1 0x16 PUSH1 0x24 DUP3 ADD MSTORE PUSH32 0x42656E6566696369617279206D75737420657869737400000000000000000000 PUSH1 0x44 DUP3 ADD MSTORE PUSH1 0x64 ADD PUSH2 0x22E JUMP JUMPDEST PUSH1 0x0 DUP2 GT PUSH2 0x6BF JUMPI PUSH1 0x40 MLOAD PUSH3 0x461BCD PUSH1 0xE5 SHL DUP2 MSTORE PUSH1 0x20 PUSH1 0x4 DUP3 ADD MSTORE PUSH1 0x16 PUSH1 0x24 DUP3 ADD MSTORE PUSH32 0x576569676874206D757374206265206E6F6E7A65726F00000000000000000000 PUSH1 0x44 DUP3 ADD MSTORE PUSH1 0x64 ADD PUSH2 0x22E JUMP JUMPDEST PUSH1 0x0 DUP1 SLOAD SWAP1 SUB PUSH2 0x793 JUMPI PUSH1 0x40 DUP1 MLOAD PUSH1 0x60 DUP2 ADD DUP3 MSTORE PUSH1 0x1 PUSH1 0x1 PUSH1 0xA0 SHL SUB SWAP4 DUP5 AND DUP2 MSTORE PUSH1 0x0 PUSH1 0x20 DUP3 ADD DUP2 DUP2 MSTORE SWAP3 DUP3 ADD SWAP4 DUP5 MSTORE DUP1 SLOAD PUSH1 0x1 DUP2 ADD DUP3 SSTORE SWAP1 DUP1 MSTORE SWAP1 MLOAD PUSH32 0x290DECD9548B62A8D60345A988386FC84BA6BC95484008F6362F93160EF3E563 PUSH1 0x3 SWAP1 SWAP3 MUL SWAP2 DUP3 ADD DUP1 SLOAD PUSH20 0xFFFFFFFFFFFFFFFFFFFFFFFFFFFFFFFFFFFFFFFF NOT AND SWAP2 SWAP1 SWAP6 AND OR SWAP1 SWAP4 SSTORE MLOAD PUSH32 0x290DECD9548B62A8D60345A988386FC84BA6BC95484008F6362F93160EF3E564 DUP4 ADD SSTORE MLOAD PUSH32 0x290DECD9548B62A8D60345A988386FC84BA6BC95484008F6362F93160EF3E565 SWAP1 SWAP2 ADD SSTORE JUMP JUMPDEST PUSH1 0x0 DUP1 SLOAD DUP2 SWAP1 PUSH2 0x7A5 SWAP1 PUSH1 0x1 SWAP1 PUSH2 0xF01 JUMP JUMPDEST DUP2 SLOAD DUP2 LT PUSH2 0x7B5 JUMPI PUSH2 0x7B5 PUSH2 0xEBC JUMP JUMPDEST SWAP1 PUSH1 0x0 MSTORE PUSH1 0x20 PUSH1 0x0 KECCAK256 SWAP1 PUSH1 0x3 MUL ADD SWAP1 POP PUSH1 0x0 PUSH1 0x40 MLOAD DUP1 PUSH1 0x60 ADD PUSH1 0x40 MSTORE DUP1 DUP6 PUSH1 0x1 PUSH1 0x1 PUSH1 0xA0 SHL SUB AND DUP2 MSTORE PUSH1 0x20 ADD DUP4 PUSH1 0x2 ADD SLOAD DUP2 MSTORE PUSH1 0x20 ADD DUP5 DUP5 PUSH1 0x2 ADD SLOAD PUSH2 0x7FB SWAP2 SWAP1 PUSH2 0xF14 JUMP JUMPDEST SWAP1 MSTORE DUP2 SLOAD PUSH1 0x1 DUP1 DUP3 ADD DUP5 SSTORE PUSH1 0x0 SWAP4 DUP5 MSTORE PUSH1 0x20 SWAP4 DUP5 SWAP1 KECCAK256 DUP4 MLOAD PUSH1 0x3 SWAP1 SWAP4 MUL ADD DUP1 SLOAD PUSH20 0xFFFFFFFFFFFFFFFFFFFFFFFFFFFFFFFFFFFFFFFF NOT AND PUSH1 0x1 PUSH1 0x1 PUSH1 0xA0 SHL SUB SWAP1 SWAP4 AND SWAP3 SWAP1 SWAP3 OR DUP3 SSTORE SWAP3 DUP3 ADD MLOAD SWAP3 DUP2 ADD SWAP3 SWAP1 SWAP3 SSTORE PUSH1 0x40 ADD MLOAD PUSH1 0x2 SWAP1 SWAP2 ADD SSTORE POP POP POP JUMP JUMPDEST PUSH2 0x865 PUSH2 0xB14 JUMP JUMPDEST PUSH2 0x5A2 DUP2 PUSH2 0xB7B JUMP JUMPDEST PUSH1 0x0 PUSH2 0x87A DUP4 DUP4 PUSH2 0xB83 JUMP JUMPDEST SWAP4 SWAP3 POP POP POP JUMP JUMPDEST PUSH32 0x9016D09D72D40FDAE2FD8CEAC6B6234C7706214FD39C1CD1E609A0528C199300 DUP1 SLOAD PUSH20 0xFFFFFFFFFFFFFFFFFFFFFFFFFFFFFFFFFFFFFFFF NOT DUP2 AND PUSH1 0x1 PUSH1 0x1 PUSH1 0xA0 SHL SUB DUP5 DUP2 AND SWAP2 DUP3 OR DUP5 SSTORE PUSH1 0x40 MLOAD SWAP3 AND SWAP2 DUP3 SWAP1 PUSH32 0x8BE0079C531659141344CD1FD0A4F28419497F9722A3DAAFE3B4186F6B6457E0 SWAP1 PUSH1 0x0 SWAP1 LOG3 POP POP POP JUMP JUMPDEST PUSH1 0x0 DUP1 SLOAD DUP2 SWAP1 DUP2 SWAP1 PUSH2 0x913 SWAP1 PUSH1 0x1 SWAP1 PUSH2 0xF01 JUMP JUMPDEST DUP2 SLOAD DUP2 LT PUSH2 0x923 JUMPI PUSH2 0x923 PUSH2 0xEBC JUMP JUMPDEST PUSH1 0x0 SWAP2 DUP3 MSTORE PUSH1 0x20 DUP1 DUP4 KECCAK256 PUSH1 0x40 DUP1 MLOAD PUSH1 0x60 DUP2 ADD DUP3 MSTORE PUSH1 0x3 SWAP1 SWAP5 MUL SWAP1 SWAP2 ADD DUP1 SLOAD PUSH1 0x1 PUSH1 0x1 PUSH1 0xA0 SHL SUB AND DUP5 MSTORE PUSH1 0x1 DUP1 DUP3 ADD SLOAD SWAP4 DUP6 ADD SWAP4 SWAP1 SWAP4 MSTORE PUSH1 0x2 ADD SLOAD SWAP1 DUP4 ADD DUP2 SWAP1 MSTORE SWAP1 SLOAD SWAP2 SWAP4 POP PUSH2 0x976 SWAP2 DUP7 SWAP2 SWAP1 PUSH1 0xC PUSH2 0xBAD JUMP JUMPDEST SWAP1 POP PUSH1 0x0 DUP1 PUSH1 0x1 PUSH1 0x0 DUP1 SLOAD SWAP1 POP PUSH2 0x98D SWAP2 SWAP1 PUSH2 0xF01 JUMP JUMPDEST SWAP1 POP JUMPDEST DUP1 DUP3 GT PUSH2 0xA58 JUMPI PUSH1 0x0 PUSH1 0x2 PUSH2 0x9A5 DUP4 DUP6 PUSH2 0xF14 JUMP JUMPDEST PUSH2 0x9AF SWAP2 SWAP1 PUSH2 0xF27 JUMP JUMPDEST SWAP1 POP PUSH1 0x0 DUP1 DUP3 DUP2 SLOAD DUP2 LT PUSH2 0x9C5 JUMPI PUSH2 0x9C5 PUSH2 0xEBC JUMP JUMPDEST PUSH1 0x0 SWAP2 DUP3 MSTORE PUSH1 0x20 SWAP2 DUP3 SWAP1 KECCAK256 PUSH1 0x40 DUP1 MLOAD PUSH1 0x60 DUP2 ADD DUP3 MSTORE PUSH1 0x3 SWAP1 SWAP4 MUL SWAP1 SWAP2 ADD DUP1 SLOAD PUSH1 0x1 PUSH1 0x1 PUSH1 0xA0 SHL SUB AND DUP4 MSTORE PUSH1 0x1 DUP2 ADD SLOAD SWAP4 DUP4 ADD DUP5 SWAP1 MSTORE PUSH1 0x2 ADD SLOAD SWAP1 DUP3 ADD MSTORE SWAP2 POP DUP6 LT DUP1 ISZERO SWAP1 PUSH2 0xA16 JUMPI POP DUP1 PUSH1 0x40 ADD MLOAD DUP6 LT JUMPDEST ISZERO PUSH2 0xA25 JUMPI MLOAD SWAP6 POP PUSH2 0xA58 SWAP1 POP JUMP JUMPDEST DUP5 DUP2 PUSH1 0x20 ADD MLOAD GT ISZERO PUSH2 0xA43 JUMPI PUSH2 0xA3C PUSH1 0x1 DUP4 PUSH2 0xF01 JUMP JUMPDEST SWAP3 POP PUSH2 0xA51 JUMP JUMPDEST PUSH2 0xA4E DUP3 PUSH1 0x1 PUSH2 0xF14 JUMP JUMPDEST SWAP4 POP JUMPDEST POP POP PUSH2 0x990 JUMP JUMPDEST PUSH1 0x1 PUSH1 0x1 PUSH1 0xA0 SHL SUB DUP6 AND PUSH2 0xAD4 JUMPI PUSH1 0x40 MLOAD PUSH3 0x461BCD PUSH1 0xE5 SHL DUP2 MSTORE PUSH1 0x20 PUSH1 0x4 DUP3 ADD MSTORE PUSH1 0x27 PUSH1 0x24 DUP3 ADD MSTORE PUSH32 0x496E76617269616E742076696F6C6174696F6E3A20696E646578206F7574206F PUSH1 0x44 DUP3 ADD MSTORE PUSH32 0x662072616E676500000000000000000000000000000000000000000000000000 PUSH1 0x64 DUP3 ADD MSTORE PUSH1 0x84 ADD PUSH2 0x22E JUMP JUMPDEST POP POP POP POP SWAP2 SWAP1 POP JUMP JUMPDEST PUSH1 0x1 PUSH1 0x1 PUSH1 0xA0 SHL SUB DUP2 AND PUSH1 0x0 SWAP1 DUP2 MSTORE PUSH1 0x1 DUP4 ADD PUSH1 0x20 MSTORE PUSH1 0x40 DUP2 KECCAK256 SLOAD ISZERO ISZERO PUSH2 0x87A JUMP JUMPDEST PUSH1 0x0 PUSH2 0x87A DUP4 PUSH1 0x1 PUSH1 0x1 PUSH1 0xA0 SHL SUB DUP5 AND PUSH2 0xD14 JUMP JUMPDEST PUSH32 0xF0C57E16840DF040F15088DC2F81FE391C3923BEC73E23A9662EFC9C229C6A00 SLOAD PUSH9 0x10000000000000000 SWAP1 DIV PUSH1 0xFF AND PUSH2 0x463 JUMPI PUSH1 0x40 MLOAD PUSH32 0xD7E6BCF800000000000000000000000000000000000000000000000000000000 DUP2 MSTORE PUSH1 0x4 ADD PUSH1 0x40 MLOAD DUP1 SWAP2 SUB SWAP1 REVERT JUMPDEST PUSH2 0x556 PUSH2 0xB14 JUMP JUMPDEST PUSH1 0x0 DUP3 PUSH1 0x0 ADD DUP3 DUP2 SLOAD DUP2 LT PUSH2 0xB9A JUMPI PUSH2 0xB9A PUSH2 0xEBC JUMP JUMPDEST SWAP1 PUSH1 0x0 MSTORE PUSH1 0x20 PUSH1 0x0 KECCAK256 ADD SLOAD SWAP1 POP SWAP3 SWAP2 POP POP JUMP JUMPDEST PUSH1 0x0 DUP4 ISZERO DUP1 PUSH2 0xBBC JUMPI POP DUP4 DUP6 LT ISZERO JUMPDEST DUP1 PUSH2 0xBCA JUMPI POP DUP2 PUSH1 0x1 AND PUSH1 0x1 EQ JUMPDEST ISZERO PUSH2 0xC01 JUMPI PUSH1 0x40 MLOAD PUSH32 0xF34CFAB600000000000000000000000000000000000000000000000000000000 DUP2 MSTORE PUSH1 0x4 ADD PUSH1 0x40 MLOAD DUP1 SWAP2 SUB SWAP1 REVERT JUMPDEST PUSH2 0xC53 JUMP JUMPDEST PUSH1 0x0 PUSH1 0x3 DUP3 GT PUSH1 0x1 DUP2 EQ PUSH2 0xC29 JUMPI PUSH1 0x1 DUP4 ISZERO NOT AND ISZERO PUSH2 0xC24 JUMPI PUSH1 0x1 SWAP2 POP JUMPDEST PUSH2 0xC4D JUMP JUMPDEST DUP3 SWAP2 POP PUSH1 0x1 PUSH1 0x2 DUP5 DIV ADD JUMPDEST DUP3 DUP2 LT ISZERO PUSH2 0xC4B JUMPI SWAP2 POP PUSH1 0x2 DUP3 DUP5 DIV DUP4 ADD DIV PUSH2 0xC34 JUMP JUMPDEST POP JUMPDEST POP SWAP2 SWAP1 POP JUMP JUMPDEST PUSH2 0xC5C DUP5 PUSH2 0xC06 JUMP JUMPDEST PUSH1 0x0 DUP6 PUSH1 0x2 DUP4 EXP EQ PUSH1 0x1 DUP2 EQ PUSH2 0xC98 JUMPI PUSH1 0x1 DUP4 ADD PUSH16 0xFFFFFFFFFFFFFFFFFFFFFFFFFFFFFFFF DUP2 GT ISZERO PUSH2 0xC8D JUMPI PUSH1 0x0 DUP1 REVERT JUMPDEST PUSH1 0x2 SWAP1 EXP SWAP2 POP PUSH2 0xC9C JUMP JUMPDEST DUP7 SWAP2 POP JUMPDEST POP PUSH2 0xCA6 DUP2 PUSH2 0xC06 JUMP JUMPDEST SWAP2 POP POP PUSH1 0x40 MLOAD PUSH1 0x80 DUP2 ADD PUSH1 0x40 MSTORE DUP5 PUSH1 0x40 DUP3 ADD MSTORE DUP6 PUSH1 0x60 DUP3 ADD MSTORE JUMPDEST DUP2 DUP8 MOD DUP3 DUP9 DIV PUSH1 0x0 JUMPDEST DUP7 DUP2 LT ISZERO PUSH2 0xCFB JUMPI DUP3 DUP5 MSTORE PUSH1 0x0 NOT DUP2 DUP9 SUB ADD PUSH1 0x20 DUP6 ADD MSTORE PUSH1 0x80 DUP5 KECCAK256 DUP6 SWAP1 MOD SWAP2 DUP6 ADD SWAP2 SWAP1 SWAP2 SUB DUP5 SWAP1 MOD SWAP2 SWAP1 PUSH1 0x1 ADD PUSH2 0xCC9 JUMP JUMPDEST POP DUP4 MUL ADD SWAP7 POP DUP6 DUP8 LT ISZERO PUSH2 0xCC0 JUMPI POP SWAP5 SWAP6 SWAP5 POP POP POP POP POP JUMP JUMPDEST PUSH1 0x0 DUP2 DUP2 MSTORE PUSH1 0x1 DUP4 ADD PUSH1 0x20 MSTORE PUSH1 0x40 DUP2 KECCAK256 SLOAD PUSH2 0xD5B JUMPI POP DUP2 SLOAD PUSH1 0x1 DUP2 DUP2 ADD DUP5 SSTORE PUSH1 0x0 DUP5 DUP2 MSTORE PUSH1 0x20 DUP1 DUP3 KECCAK256 SWAP1 SWAP4 ADD DUP5 SWAP1 SSTORE DUP5 SLOAD DUP5 DUP3 MSTORE DUP3 DUP7 ADD SWAP1 SWAP4 MSTORE PUSH1 0x40 SWAP1 KECCAK256 SWAP2 SWAP1 SWAP2 SSTORE PUSH2 0x44B JUMP JUMPDEST POP PUSH1 0x0 PUSH2 0x44B JUMP JUMPDEST PUSH1 0x0 DUP1 DUP4 PUSH1 0x1F DUP5 ADD SLT PUSH2 0xD75 JUMPI PUSH1 0x0 DUP1 REVERT JUMPDEST POP DUP2 CALLDATALOAD PUSH8 0xFFFFFFFFFFFFFFFF DUP2 GT ISZERO PUSH2 0xD8D JUMPI PUSH1 0x0 DUP1 REVERT JUMPDEST PUSH1 0x20 DUP4 ADD SWAP2 POP DUP4 PUSH1 0x20 DUP3 PUSH1 0x5 SHL DUP6 ADD ADD GT ISZERO PUSH2 0xDA8 JUMPI PUSH1 0x0 DUP1 REVERT JUMPDEST SWAP3 POP SWAP3 SWAP1 POP JUMP JUMPDEST PUSH1 0x0 DUP1 PUSH1 0x0 DUP1 PUSH1 0x40 DUP6 DUP8 SUB SLT ISZERO PUSH2 0xDC5 JUMPI PUSH1 0x0 DUP1 REVERT JUMPDEST DUP5 CALLDATALOAD PUSH8 0xFFFFFFFFFFFFFFFF DUP2 GT ISZERO PUSH2 0xDDC JUMPI PUSH1 0x0 DUP1 REVERT JUMPDEST PUSH2 0xDE8 DUP8 DUP3 DUP9 ADD PUSH2 0xD63 JUMP JUMPDEST SWAP1 SWAP6 POP SWAP4 POP POP PUSH1 0x20 DUP6 ADD CALLDATALOAD PUSH8 0xFFFFFFFFFFFFFFFF DUP2 GT ISZERO PUSH2 0xE08 JUMPI PUSH1 0x0 DUP1 REVERT JUMPDEST PUSH2 0xE14 DUP8 DUP3 DUP9 ADD PUSH2 0xD63 JUMP JUMPDEST SWAP6 SWAP9 SWAP5 SWAP8 POP SWAP6 POP POP POP POP JUMP JUMPDEST DUP1 CALLDATALOAD PUSH1 0x1 PUSH1 0x1 PUSH1 0xA0 SHL SUB DUP2 AND DUP2 EQ PUSH2 0xE37 JUMPI PUSH1 0x0 DUP1 REVERT JUMPDEST SWAP2 SWAP1 POP JUMP JUMPDEST PUSH1 0x0 PUSH1 0x20 DUP3 DUP5 SUB SLT ISZERO PUSH2 0xE4E JUMPI PUSH1 0x0 DUP1 REVERT JUMPDEST PUSH2 0x87A DUP3 PUSH2 0xE20 JUMP JUMPDEST PUSH1 0x0 DUP1 PUSH1 0x40 DUP4 DUP6 SUB SLT ISZERO PUSH2 0xE6A JUMPI PUSH1 0x0 DUP1 REVERT JUMPDEST PUSH2 0xE73 DUP4 PUSH2 0xE20 JUMP JUMPDEST SWAP5 PUSH1 0x20 SWAP4 SWAP1 SWAP4 ADD CALLDATALOAD SWAP4 POP POP POP JUMP JUMPDEST PUSH1 0x0 PUSH1 0x20 DUP3 DUP5 SUB SLT ISZERO PUSH2 0xE93 JUMPI PUSH1 0x0 DUP1 REVERT JUMPDEST POP CALLDATALOAD SWAP2 SWAP1 POP JUMP JUMPDEST PUSH1 0x0 DUP1 PUSH1 0x40 DUP4 DUP6 SUB SLT ISZERO PUSH2 0xEAD JUMPI PUSH1 0x0 DUP1 REVERT JUMPDEST POP POP DUP1 CALLDATALOAD SWAP3 PUSH1 0x20 SWAP1 SWAP2 ADD CALLDATALOAD SWAP2 POP JUMP JUMPDEST PUSH4 0x4E487B71 PUSH1 0xE0 SHL PUSH1 0x0 MSTORE PUSH1 0x32 PUSH1 0x4 MSTORE PUSH1 0x24 PUSH1 0x0 REVERT JUMPDEST PUSH4 0x4E487B71 PUSH1 0xE0 SHL PUSH1 0x0 MSTORE PUSH1 0x11 PUSH1 0x4 MSTORE PUSH1 0x24 PUSH1 0x0 REVERT JUMPDEST PUSH1 0x0 PUSH1 0x1 DUP3 ADD PUSH2 0xEFA JUMPI PUSH2 0xEFA PUSH2 0xED2 JUMP JUMPDEST POP PUSH1 0x1 ADD SWAP1 JUMP JUMPDEST DUP2 DUP2 SUB DUP2 DUP2 GT ISZERO PUSH2 0x44B JUMPI PUSH2 0x44B PUSH2 0xED2 JUMP JUMPDEST DUP1 DUP3 ADD DUP1 DUP3 GT ISZERO PUSH2 0x44B JUMPI PUSH2 0x44B PUSH2 0xED2 JUMP JUMPDEST PUSH1 0x0 DUP3 PUSH2 0xF44 JUMPI PUSH4 0x4E487B71 PUSH1 0xE0 SHL PUSH1 0x0 MSTORE PUSH1 0x12 PUSH1 0x4 MSTORE PUSH1 0x24 PUSH1 0x0 REVERT JUMPDEST POP DIV SWAP1 JUMP INVALID LOG2 PUSH5 0x6970667358 0x22 SLT KECCAK256 PUSH6 0xAE4823ABE727 CALLDATASIZE 0x4E CALLCODE SDIV PUSH8 0x196EBF8FD072919B DELEGATECALL 0xF9 DUP7 PUSH17 0x29575607FA6DE16864736F6C634300081A STOP CALLER "
        },
        "methodIdentifiers": {
          "addEntries(address[],uint256[])": "1086e0ac",
          "addEntry(address,uint256)": "22ba5f7b",
          "draw(uint256,uint256)": "d2b8035a",
          "entries(uint256)": "b30906d4",
          "getWinner(uint256)": "4129b2c9",
          "init(address)": "19ab453c",
          "owner()": "8da5cb5b",
          "randomSeed()": "0b747d91",
          "renounceOwnership()": "715018a6",
          "transferOwnership(address)": "f2fde38b"
        }
      },
      "storageLayout": {
        "storage": [
          {
            "astId": 2168,
            "contract": "contracts/WeightedRaffle.sol:WeightedRaffle",
            "label": "entries",
            "offset": 0,
            "slot": "0",
            "type": "t_array(t_struct(Entry)2163_storage)dyn_storage"
          },
          {
            "astId": 2171,
            "contract": "contracts/WeightedRaffle.sol:WeightedRaffle",
            "label": "randomSeed",
            "offset": 0,
            "slot": "1",
            "type": "t_uint256"
          },
          {
            "astId": 2175,
            "contract": "contracts/WeightedRaffle.sol:WeightedRaffle",
            "label": "winners",
            "offset": 0,
            "slot": "2",
            "type": "t_struct(AddressSet)1847_storage"
          }
        ],
        "types": {
          "t_address": {
            "encoding": "inplace",
            "label": "address",
            "numberOfBytes": "20"
          },
          "t_array(t_bytes32)dyn_storage": {
            "base": "t_bytes32",
            "encoding": "dynamic_array",
            "label": "bytes32[]",
            "numberOfBytes": "32"
          },
          "t_array(t_struct(Entry)2163_storage)dyn_storage": {
            "base": "t_struct(Entry)2163_storage",
            "encoding": "dynamic_array",
            "label": "struct WeightedRaffle.Entry[]",
            "numberOfBytes": "32"
          },
          "t_bytes32": {
            "encoding": "inplace",
            "label": "bytes32",
            "numberOfBytes": "32"
          },
          "t_mapping(t_bytes32,t_uint256)": {
            "encoding": "mapping",
            "key": "t_bytes32",
            "label": "mapping(bytes32 => uint256)",
            "numberOfBytes": "32",
            "value": "t_uint256"
          },
          "t_struct(AddressSet)1847_storage": {
            "encoding": "inplace",
            "label": "struct EnumerableSet.AddressSet",
            "members": [
              {
                "astId": 1846,
                "contract": "contracts/WeightedRaffle.sol:WeightedRaffle",
                "label": "_inner",
                "offset": 0,
                "slot": "0",
                "type": "t_struct(Set)1532_storage"
              }
            ],
            "numberOfBytes": "64"
          },
          "t_struct(Entry)2163_storage": {
            "encoding": "inplace",
            "label": "struct WeightedRaffle.Entry",
            "members": [
              {
                "astId": 2156,
                "contract": "contracts/WeightedRaffle.sol:WeightedRaffle",
                "label": "beneficiary",
                "offset": 0,
                "slot": "0",
                "type": "t_address"
              },
              {
                "astId": 2159,
                "contract": "contracts/WeightedRaffle.sol:WeightedRaffle",
                "label": "start",
                "offset": 0,
                "slot": "1",
                "type": "t_uint256"
              },
              {
                "astId": 2162,
                "contract": "contracts/WeightedRaffle.sol:WeightedRaffle",
                "label": "end",
                "offset": 0,
                "slot": "2",
                "type": "t_uint256"
              }
            ],
            "numberOfBytes": "96"
          },
          "t_struct(Set)1532_storage": {
            "encoding": "inplace",
            "label": "struct EnumerableSet.Set",
            "members": [
              {
                "astId": 1527,
                "contract": "contracts/WeightedRaffle.sol:WeightedRaffle",
                "label": "_values",
                "offset": 0,
                "slot": "0",
                "type": "t_array(t_bytes32)dyn_storage"
              },
              {
                "astId": 1531,
                "contract": "contracts/WeightedRaffle.sol:WeightedRaffle",
                "label": "_positions",
                "offset": 0,
                "slot": "1",
                "type": "t_mapping(t_bytes32,t_uint256)"
              }
            ],
            "numberOfBytes": "64"
          },
          "t_uint256": {
            "encoding": "inplace",
            "label": "uint256",
            "numberOfBytes": "32"
          }
        }
      }
    }
  }
}